{
  "_format": "hh-sol-artifact-1",
  "contractName": "WavePortal",
  "sourceName": "contracts/WavePortal.sol",
  "abi": [
    {
      "inputs": [],
      "stateMutability": "nonpayable",
      "type": "constructor"
    },
    {
      "inputs": [],
      "name": "getAddrWaveCount",
      "outputs": [
        {
          "internalType": "uint256",
          "name": "",
          "type": "uint256"
        }
      ],
      "stateMutability": "view",
      "type": "function"
    },
    {
      "inputs": [],
      "name": "getAllWaves",
      "outputs": [
        {
          "components": [
            {
              "internalType": "address",
              "name": "waver",
              "type": "address"
            },
            {
              "internalType": "string",
              "name": "message",
              "type": "string"
            },
            {
              "internalType": "uint256",
              "name": "timestamp",
              "type": "uint256"
            }
          ],
          "internalType": "struct WavePortal.Wave[]",
          "name": "",
          "type": "tuple[]"
        }
      ],
      "stateMutability": "view",
      "type": "function"
    },
    {
      "inputs": [],
      "name": "getTotalWaves",
      "outputs": [
        {
          "internalType": "uint256",
          "name": "",
          "type": "uint256"
        }
      ],
      "stateMutability": "view",
      "type": "function"
    },
    {
      "inputs": [
        {
          "internalType": "string",
          "name": "_message",
          "type": "string"
        }
      ],
      "name": "wave",
      "outputs": [],
      "stateMutability": "nonpayable",
      "type": "function"
    }
  ],
  "bytecode": "0x60806040523480156200001157600080fd5b506200004160405180606001604052806025815260200162000f9b602591396200004760201b620004a61760201c565b620001db565b620000e7816040516024016200005e919062000154565b6040516020818303038152906040527f41304fac000000000000000000000000000000000000000000000000000000007bffffffffffffffffffffffffffffffffffffffffffffffffffffffff19166020820180517bffffffffffffffffffffffffffffffffffffffffffffffffffffffff8381831617835250505050620000ea60201b60201c565b50565b60008151905060006a636f6e736f6c652e6c6f679050602083016000808483855afa5050505050565b6000620001208262000178565b6200012c818562000183565b93506200013e81856020860162000194565b6200014981620001ca565b840191505092915050565b6000602082019050818103600083015262000170818462000113565b905092915050565b600081519050919050565b600082825260208201905092915050565b60005b83811015620001b457808201518184015260208101905062000197565b83811115620001c4576000848401525b50505050565b6000601f19601f8301169050919050565b610db080620001eb6000396000f3fe608060405234801561001057600080fd5b506004361061004c5760003560e01c8063449d46c0146100515780636a5f684b1461006d5780639a2cdc081461008b578063bd43a908146100a9575b600080fd5b61006b6004803603810190610066919061084a565b6100c7565b005b610075610244565b6040516100829190610af4565b60405180910390f35b61009361030a565b6040516100a09190610af4565b60405180910390f35b6100b1610355565b6040516100be9190610a12565b60405180910390f35b60016000808282546100d99190610bd6565b9250508190555060018060003373ffffffffffffffffffffffffffffffffffffffff1673ffffffffffffffffffffffffffffffffffffffff168152602001908152602001600020600082825461012f9190610bd6565b925050819055506101756040518060400160405280600d81526020017f25732068617320776176656421000000000000000000000000000000000000008152503361053f565b600260405180606001604052803373ffffffffffffffffffffffffffffffffffffffff16815260200183815260200142815250908060018154018082558091505060019003906000526020600020906003020160009091909190915060008201518160000160006101000a81548173ffffffffffffffffffffffffffffffffffffffff021916908373ffffffffffffffffffffffffffffffffffffffff160217905550602082015181600101908051906020019061023492919061073f565b5060408201518160020155505050565b60006102c56040518060400160405280601681526020017f2573206861732077617665642025732074696d6573210000000000000000000081525033600160003373ffffffffffffffffffffffffffffffffffffffff1673ffffffffffffffffffffffffffffffffffffffff168152602001908152602001600020546105db565b600160003373ffffffffffffffffffffffffffffffffffffffff1673ffffffffffffffffffffffffffffffffffffffff16815260200190815260200160002054905090565b600061034d6040518060400160405280601781526020017f5765206861766520256420746f74616c2077617665732100000000000000000081525060005461067a565b600054905090565b60606002805480602002602001604051908101604052809291908181526020016000905b8282101561049d57838290600052602060002090600302016040518060600160405290816000820160009054906101000a900473ffffffffffffffffffffffffffffffffffffffff1673ffffffffffffffffffffffffffffffffffffffff1673ffffffffffffffffffffffffffffffffffffffff16815260200160018201805461040290610caa565b80601f016020809104026020016040519081016040528092919081815260200182805461042e90610caa565b801561047b5780601f106104505761010080835404028352916020019161047b565b820191906000526020600020905b81548152906001019060200180831161045e57829003601f168201915b5050505050815260200160028201548152505081526020019060010190610379565b50505050905090565b61053c816040516024016104ba9190610a34565b6040516020818303038152906040527f41304fac000000000000000000000000000000000000000000000000000000007bffffffffffffffffffffffffffffffffffffffffffffffffffffffff19166020820180517bffffffffffffffffffffffffffffffffffffffffffffffffffffffff8381831617835250505050610716565b50565b6105d78282604051602401610555929190610a56565b6040516020818303038152906040527f319af333000000000000000000000000000000000000000000000000000000007bffffffffffffffffffffffffffffffffffffffffffffffffffffffff19166020820180517bffffffffffffffffffffffffffffffffffffffffffffffffffffffff8381831617835250505050610716565b5050565b6106758383836040516024016105f393929190610a86565b6040516020818303038152906040527f07c81217000000000000000000000000000000000000000000000000000000007bffffffffffffffffffffffffffffffffffffffffffffffffffffffff19166020820180517bffffffffffffffffffffffffffffffffffffffffffffffffffffffff8381831617835250505050610716565b505050565b6107128282604051602401610690929190610ac4565b6040516020818303038152906040527f9710a9d0000000000000000000000000000000000000000000000000000000007bffffffffffffffffffffffffffffffffffffffffffffffffffffffff19166020820180517bffffffffffffffffffffffffffffffffffffffffffffffffffffffff8381831617835250505050610716565b5050565b60008151905060006a636f6e736f6c652e6c6f679050602083016000808483855afa5050505050565b82805461074b90610caa565b90600052602060002090601f01602090048101928261076d57600085556107b4565b82601f1061078657805160ff19168380011785556107b4565b828001600101855582156107b4579182015b828111156107b3578251825591602001919060010190610798565b5b5090506107c191906107c5565b5090565b5b808211156107de5760008160009055506001016107c6565b5090565b60006107f56107f084610b40565b610b0f565b90508281526020810184848401111561080d57600080fd5b610818848285610c68565b509392505050565b600082601f83011261083157600080fd5b81356108418482602086016107e2565b91505092915050565b60006020828403121561085c57600080fd5b600082013567ffffffffffffffff81111561087657600080fd5b61088284828501610820565b91505092915050565b600061089783836109a4565b905092915050565b6108a881610c2c565b82525050565b6108b781610c2c565b82525050565b60006108c882610b80565b6108d28185610ba3565b9350836020820285016108e485610b70565b8060005b858110156109205784840389528151610901858261088b565b945061090c83610b96565b925060208a019950506001810190506108e8565b50829750879550505050505092915050565b600061093d82610b8b565b6109478185610bb4565b9350610957818560208601610c77565b61096081610d69565b840191505092915050565b600061097682610b8b565b6109808185610bc5565b9350610990818560208601610c77565b61099981610d69565b840191505092915050565b60006060830160008301516109bc600086018261089f565b50602083015184820360208601526109d48282610932565b91505060408301516109e960408601826109f4565b508091505092915050565b6109fd81610c5e565b82525050565b610a0c81610c5e565b82525050565b60006020820190508181036000830152610a2c81846108bd565b905092915050565b60006020820190508181036000830152610a4e818461096b565b905092915050565b60006040820190508181036000830152610a70818561096b565b9050610a7f60208301846108ae565b9392505050565b60006060820190508181036000830152610aa0818661096b565b9050610aaf60208301856108ae565b610abc6040830184610a03565b949350505050565b60006040820190508181036000830152610ade818561096b565b9050610aed6020830184610a03565b9392505050565b6000602082019050610b096000830184610a03565b92915050565b6000604051905081810181811067ffffffffffffffff82111715610b3657610b35610d3a565b5b8060405250919050565b600067ffffffffffffffff821115610b5b57610b5a610d3a565b5b601f19601f8301169050602081019050919050565b6000819050602082019050919050565b600081519050919050565b600081519050919050565b6000602082019050919050565b600082825260208201905092915050565b600082825260208201905092915050565b600082825260208201905092915050565b6000610be182610c5e565b9150610bec83610c5e565b9250827fffffffffffffffffffffffffffffffffffffffffffffffffffffffffffffffff03821115610c2157610c20610cdc565b5b828201905092915050565b6000610c3782610c3e565b9050919050565b600073ffffffffffffffffffffffffffffffffffffffff82169050919050565b6000819050919050565b82818337600083830152505050565b60005b83811015610c95578082015181840152602081019050610c7a565b83811115610ca4576000848401525b50505050565b60006002820490506001821680610cc257607f821691505b60208210811415610cd657610cd5610d0b565b5b50919050565b7f4e487b7100000000000000000000000000000000000000000000000000000000600052601160045260246000fd5b7f4e487b7100000000000000000000000000000000000000000000000000000000600052602260045260246000fd5b7f4e487b7100000000000000000000000000000000000000000000000000000000600052604160045260246000fd5b6000601f19601f830116905091905056fea2646970667358221220b2cda1a13446c225689ac029a3b5e1eb10d143bca0876e2b63f88a06ae0c3af964736f6c63430008000033536d61727420636f6e7472616374207375636365737366756c6c79206465706c6f79656421",
  "linkReferences": {},
  "deployedLinkReferences": {}
}