{
  "_format": "hh-sol-artifact-1",
  "contractName": "WavePortal",
  "sourceName": "contracts/WavePortal.sol",
  "abi": [
    {
      "inputs": [],
      "stateMutability": "payable",
      "type": "constructor"
    },
    {
      "anonymous": false,
      "inputs": [
        {
          "indexed": true,
          "internalType": "address",
          "name": "from",
          "type": "address"
        },
        {
          "indexed": false,
          "internalType": "uint256",
          "name": "timestamp",
          "type": "uint256"
        },
        {
          "indexed": false,
          "internalType": "string",
          "name": "message",
          "type": "string"
        }
      ],
      "name": "NewWave",
      "type": "event"
    },
    {
      "inputs": [],
      "name": "getAddrWaveCount",
      "outputs": [
        {
          "internalType": "uint256",
          "name": "",
          "type": "uint256"
        }
      ],
      "stateMutability": "view",
      "type": "function"
    },
    {
      "inputs": [],
      "name": "getAllWaves",
      "outputs": [
        {
          "components": [
            {
              "internalType": "address",
              "name": "waver",
              "type": "address"
            },
            {
              "internalType": "string",
              "name": "message",
              "type": "string"
            },
            {
              "internalType": "uint256",
              "name": "timestamp",
              "type": "uint256"
            }
          ],
          "internalType": "struct WavePortal.Wave[]",
          "name": "",
          "type": "tuple[]"
        }
      ],
      "stateMutability": "view",
      "type": "function"
    },
    {
      "inputs": [],
      "name": "getTopWavers",
      "outputs": [
        {
          "components": [
            {
              "internalType": "address",
              "name": "waver",
              "type": "address"
            },
            {
              "internalType": "uint256",
              "name": "count",
              "type": "uint256"
            }
          ],
          "internalType": "struct WavePortal.TopWaver[3]",
          "name": "",
          "type": "tuple[3]"
        }
      ],
      "stateMutability": "view",
      "type": "function"
    },
    {
      "inputs": [],
      "name": "getTotalWaves",
      "outputs": [
        {
          "internalType": "uint256",
          "name": "",
          "type": "uint256"
        }
      ],
      "stateMutability": "view",
      "type": "function"
    },
    {
      "inputs": [
        {
          "internalType": "string",
          "name": "_message",
          "type": "string"
        }
      ],
      "name": "wave",
      "outputs": [],
      "stateMutability": "nonpayable",
      "type": "function"
    }
  ],
  "bytecode": "0x6080604052620000336040518060600160405280602581526020016200200d602591396200003960201b620011ad1760201c565b620001cd565b620000d98160405160240162000050919062000146565b6040516020818303038152906040527f41304fac000000000000000000000000000000000000000000000000000000007bffffffffffffffffffffffffffffffffffffffffffffffffffffffff19166020820180517bffffffffffffffffffffffffffffffffffffffffffffffffffffffff8381831617835250505050620000dc60201b60201c565b50565b60008151905060006a636f6e736f6c652e6c6f679050602083016000808483855afa5050505050565b600062000112826200016a565b6200011e818562000175565b93506200013081856020860162000186565b6200013b81620001bc565b840191505092915050565b6000602082019050818103600083015262000162818462000105565b905092915050565b600081519050919050565b600082825260208201905092915050565b60005b83811015620001a657808201518184015260208101905062000189565b83811115620001b6576000848401525b50505050565b6000601f19601f8301169050919050565b611e3080620001dd6000396000f3fe608060405234801561001057600080fd5b50600436106100575760003560e01c8063449d46c01461005c5780636a5f684b146100785780639a2cdc0814610096578063bd43a908146100b4578063eb847cec146100d2575b600080fd5b610076600480360381019061007191906115ae565b6100f0565b005b610080610db2565b60405161008d9190611aac565b60405180910390f35b61009e610e78565b6040516100ab9190611aac565b60405180910390f35b6100bc610ec3565b6040516100c9919061196a565b60405180910390f35b6100da611014565b6040516100e7919061194f565b60405180910390f35b42601e600360003373ffffffffffffffffffffffffffffffffffffffff1673ffffffffffffffffffffffffffffffffffffffff1681526020019081526020016000205461013d9190611bf6565b1061017d576040517f08c379a000000000000000000000000000000000000000000000000000000000815260040161017490611a6c565b60405180910390fd5b600042600360003373ffffffffffffffffffffffffffffffffffffffff1673ffffffffffffffffffffffffffffffffffffffff1681526020019081526020016000208190555060016000808282546101d59190611bf6565b925050819055506001600260003373ffffffffffffffffffffffffffffffffffffffff1673ffffffffffffffffffffffffffffffffffffffff168152602001908152602001600020600082825461022c9190611bf6565b92505081905550600260003373ffffffffffffffffffffffffffffffffffffffff1673ffffffffffffffffffffffffffffffffffffffff1681526020019081526020016000205490506102b46040518060400160405280600d81526020017f257320686173207761766564210000000000000000000000000000000000000081525033611246565b600460405180606001604052803373ffffffffffffffffffffffffffffffffffffffff16815260200184815260200142815250908060018154018082558091505060019003906000526020600020906003020160009091909190915060008201518160000160006101000a81548173ffffffffffffffffffffffffffffffffffffffff021916908373ffffffffffffffffffffffffffffffffffffffff1602179055506020820151816001019080519060200190610373929190611446565b506040820151816002015550506002600060056000600381106103bf577f4e487b7100000000000000000000000000000000000000000000000000000000600052603260045260246000fd5b0160009054906101000a900473ffffffffffffffffffffffffffffffffffffffff1673ffffffffffffffffffffffffffffffffffffffff1673ffffffffffffffffffffffffffffffffffffffff168152602001908152602001600020548110610770573373ffffffffffffffffffffffffffffffffffffffff166005600060038110610474577f4e487b7100000000000000000000000000000000000000000000000000000000600052603260045260246000fd5b0160009054906101000a900473ffffffffffffffffffffffffffffffffffffffff1673ffffffffffffffffffffffffffffffffffffffff161461076b573373ffffffffffffffffffffffffffffffffffffffff166005600160038110610503577f4e487b7100000000000000000000000000000000000000000000000000000000600052603260045260246000fd5b0160009054906101000a900473ffffffffffffffffffffffffffffffffffffffff1673ffffffffffffffffffffffffffffffffffffffff161461061857600560016003811061057b577f4e487b7100000000000000000000000000000000000000000000000000000000600052603260045260246000fd5b0160009054906101000a900473ffffffffffffffffffffffffffffffffffffffff1660056002600381106105d8577f4e487b7100000000000000000000000000000000000000000000000000000000600052603260045260246000fd5b0160006101000a81548173ffffffffffffffffffffffffffffffffffffffff021916908373ffffffffffffffffffffffffffffffffffffffff1602179055505b6005600060038110610653577f4e487b7100000000000000000000000000000000000000000000000000000000600052603260045260246000fd5b0160009054906101000a900473ffffffffffffffffffffffffffffffffffffffff1660056001600381106106b0577f4e487b7100000000000000000000000000000000000000000000000000000000600052603260045260246000fd5b0160006101000a81548173ffffffffffffffffffffffffffffffffffffffff021916908373ffffffffffffffffffffffffffffffffffffffff16021790555033600560006003811061072b577f4e487b7100000000000000000000000000000000000000000000000000000000600052603260045260246000fd5b0160006101000a81548173ffffffffffffffffffffffffffffffffffffffff021916908373ffffffffffffffffffffffffffffffffffffffff1602179055505b610ba9565b6002600060056001600381106107af577f4e487b7100000000000000000000000000000000000000000000000000000000600052603260045260246000fd5b0160009054906101000a900473ffffffffffffffffffffffffffffffffffffffff1673ffffffffffffffffffffffffffffffffffffffff1673ffffffffffffffffffffffffffffffffffffffff1681526020019081526020016000205481106109f9573373ffffffffffffffffffffffffffffffffffffffff166005600160038110610864577f4e487b7100000000000000000000000000000000000000000000000000000000600052603260045260246000fd5b0160009054906101000a900473ffffffffffffffffffffffffffffffffffffffff1673ffffffffffffffffffffffffffffffffffffffff16146109f45760056001600381106108dc577f4e487b7100000000000000000000000000000000000000000000000000000000600052603260045260246000fd5b0160009054906101000a900473ffffffffffffffffffffffffffffffffffffffff166005600260038110610939577f4e487b7100000000000000000000000000000000000000000000000000000000600052603260045260246000fd5b0160006101000a81548173ffffffffffffffffffffffffffffffffffffffff021916908373ffffffffffffffffffffffffffffffffffffffff1602179055503360056001600381106109b4577f4e487b7100000000000000000000000000000000000000000000000000000000600052603260045260246000fd5b0160006101000a81548173ffffffffffffffffffffffffffffffffffffffff021916908373ffffffffffffffffffffffffffffffffffffffff1602179055505b610ba8565b600260006005600260038110610a38577f4e487b7100000000000000000000000000000000000000000000000000000000600052603260045260246000fd5b0160009054906101000a900473ffffffffffffffffffffffffffffffffffffffff1673ffffffffffffffffffffffffffffffffffffffff1673ffffffffffffffffffffffffffffffffffffffff168152602001908152602001600020548110610ba7573373ffffffffffffffffffffffffffffffffffffffff166005600260038110610aed577f4e487b7100000000000000000000000000000000000000000000000000000000600052603260045260246000fd5b0160009054906101000a900473ffffffffffffffffffffffffffffffffffffffff1673ffffffffffffffffffffffffffffffffffffffff1614610ba657336005600260038110610b66577f4e487b7100000000000000000000000000000000000000000000000000000000600052603260045260246000fd5b0160006101000a81548173ffffffffffffffffffffffffffffffffffffffff021916908373ffffffffffffffffffffffffffffffffffffffff1602179055505b5b5b5b600060646001544244610bbc9190611bf6565b610bc69190611bf6565b610bd09190611cfc565b9050610c116040518060400160405280601681526020017f52616e646f6d20232067656e6572617465643a20247300000000000000000000815250826112e2565b806001819055506032811015610d5d57610c606040518060400160405280600781526020017f257320776f6e210000000000000000000000000000000000000000000000000081525033611246565b6000655af3107a4000905047811115610cae576040517f08c379a0000000000000000000000000000000000000000000000000000000008152600401610ca590611a8c565b60405180910390fd5b60003373ffffffffffffffffffffffffffffffffffffffff1682604051610cd49061193a565b60006040518083038185875af1925050503d8060008114610d11576040519150601f19603f3d011682016040523d82523d6000602084013e610d16565b606091505b5050905080610d5a576040517f08c379a0000000000000000000000000000000000000000000000000000000008152600401610d5190611a4c565b60405180910390fd5b50505b3373ffffffffffffffffffffffffffffffffffffffff167f5f7e16dc676677766a70e9c5628aa6c54ddb8b6e5188e2ae1e1f17f1ffbea7164285604051610da5929190611ac7565b60405180910390a2505050565b6000610e336040518060400160405280601681526020017f2573206861732077617665642025732074696d6573210000000000000000000081525033600260003373ffffffffffffffffffffffffffffffffffffffff1673ffffffffffffffffffffffffffffffffffffffff1681526020019081526020016000205461137e565b600260003373ffffffffffffffffffffffffffffffffffffffff1673ffffffffffffffffffffffffffffffffffffffff16815260200190815260200160002054905090565b6000610ebb6040518060400160405280601781526020017f5765206861766520256420746f74616c207761766573210000000000000000008152506000546112e2565b600054905090565b60606004805480602002602001604051908101604052809291908181526020016000905b8282101561100b57838290600052602060002090600302016040518060600160405290816000820160009054906101000a900473ffffffffffffffffffffffffffffffffffffffff1673ffffffffffffffffffffffffffffffffffffffff1673ffffffffffffffffffffffffffffffffffffffff168152602001600182018054610f7090611cca565b80601f0160208091040260200160405190810160405280929190818152602001828054610f9c90611cca565b8015610fe95780601f10610fbe57610100808354040283529160200191610fe9565b820191906000526020600020905b815481529060010190602001808311610fcc57829003601f168201915b5050505050815260200160028201548152505081526020019060010190610ee7565b50505050905090565b61101c6114cc565b6110246114cc565b60005b60038110156111a557604051806040016040528060058360038110611075577f4e487b7100000000000000000000000000000000000000000000000000000000600052603260045260246000fd5b0160009054906101000a900473ffffffffffffffffffffffffffffffffffffffff1673ffffffffffffffffffffffffffffffffffffffff16815260200160026000600585600381106110f0577f4e487b7100000000000000000000000000000000000000000000000000000000600052603260045260246000fd5b0160009054906101000a900473ffffffffffffffffffffffffffffffffffffffff1673ffffffffffffffffffffffffffffffffffffffff1673ffffffffffffffffffffffffffffffffffffffff16815260200190815260200160002054815250828260038110611189577f4e487b7100000000000000000000000000000000000000000000000000000000600052603260045260246000fd5b602002018190525060018161119e9190611bf6565b9050611027565b508091505090565b611243816040516024016111c1919061198c565b6040516020818303038152906040527f41304fac000000000000000000000000000000000000000000000000000000007bffffffffffffffffffffffffffffffffffffffffffffffffffffffff19166020820180517bffffffffffffffffffffffffffffffffffffffffffffffffffffffff838183161783525050505061141d565b50565b6112de828260405160240161125c9291906119ae565b6040516020818303038152906040527f319af333000000000000000000000000000000000000000000000000000000007bffffffffffffffffffffffffffffffffffffffffffffffffffffffff19166020820180517bffffffffffffffffffffffffffffffffffffffffffffffffffffffff838183161783525050505061141d565b5050565b61137a82826040516024016112f8929190611a1c565b6040516020818303038152906040527f9710a9d0000000000000000000000000000000000000000000000000000000007bffffffffffffffffffffffffffffffffffffffffffffffffffffffff19166020820180517bffffffffffffffffffffffffffffffffffffffffffffffffffffffff838183161783525050505061141d565b5050565b611418838383604051602401611396939291906119de565b6040516020818303038152906040527f07c81217000000000000000000000000000000000000000000000000000000007bffffffffffffffffffffffffffffffffffffffffffffffffffffffff19166020820180517bffffffffffffffffffffffffffffffffffffffffffffffffffffffff838183161783525050505061141d565b505050565b60008151905060006a636f6e736f6c652e6c6f679050602083016000808483855afa5050505050565b82805461145290611cca565b90600052602060002090601f01602090048101928261147457600085556114bb565b82601f1061148d57805160ff19168380011785556114bb565b828001600101855582156114bb579182015b828111156114ba57825182559160200191906001019061149f565b5b5090506114c891906114f9565b5090565b60405180606001604052806003905b6114e3611516565b8152602001906001900390816114db5790505090565b5b808211156115125760008160009055506001016114fa565b5090565b6040518060400160405280600073ffffffffffffffffffffffffffffffffffffffff168152602001600081525090565b600061155961155484611b28565b611af7565b90508281526020810184848401111561157157600080fd5b61157c848285611c88565b509392505050565b600082601f83011261159557600080fd5b81356115a5848260208601611546565b91505092915050565b6000602082840312156115c057600080fd5b600082013567ffffffffffffffff8111156115da57600080fd5b6115e684828501611584565b91505092915050565b60006115fb838361189d565b60408301905092915050565b600061161383836118cc565b905092915050565b61162481611c4c565b82525050565b61163381611c4c565b82525050565b61164281611b72565b61164c8184611bad565b925061165782611b58565b8060005b8381101561168857815161166f87826115ef565b965061167a83611b93565b92505060018101905061165b565b505050505050565b600061169b82611b7d565b6116a58185611bb8565b9350836020820285016116b785611b62565b8060005b858110156116f357848403895281516116d48582611607565b94506116df83611ba0565b925060208a019950506001810190506116bb565b50829750879550505050505092915050565b600061171082611b88565b61171a8185611bd4565b935061172a818560208601611c97565b61173381611de9565b840191505092915050565b600061174982611b88565b6117538185611be5565b9350611763818560208601611c97565b61176c81611de9565b840191505092915050565b6000611784602783611be5565b91507f4661696c656420746f207769746864726177206d6f6e65792066726f6d20636f60008301527f6e74726163742e000000000000000000000000000000000000000000000000006020830152604082019050919050565b60006117ea600883611be5565b91507f57616974203330730000000000000000000000000000000000000000000000006000830152602082019050919050565b600061182a602e83611be5565b91507f547279696e6720746f207769746864726177206d6f7265207468616e2074686560008301527f20636f6e7472616374206861732e0000000000000000000000000000000000006020830152604082019050919050565b6000611890600083611bc9565b9150600082019050919050565b6040820160008201516118b3600085018261161b565b5060208201516118c6602085018261191c565b50505050565b60006060830160008301516118e4600086018261161b565b50602083015184820360208601526118fc8282611705565b9150506040830151611911604086018261191c565b508091505092915050565b61192581611c7e565b82525050565b61193481611c7e565b82525050565b600061194582611883565b9150819050919050565b600060c0820190506119646000830184611639565b92915050565b600060208201905081810360008301526119848184611690565b905092915050565b600060208201905081810360008301526119a6818461173e565b905092915050565b600060408201905081810360008301526119c8818561173e565b90506119d7602083018461162a565b9392505050565b600060608201905081810360008301526119f8818661173e565b9050611a07602083018561162a565b611a14604083018461192b565b949350505050565b60006040820190508181036000830152611a36818561173e565b9050611a45602083018461192b565b9392505050565b60006020820190508181036000830152611a6581611777565b9050919050565b60006020820190508181036000830152611a85816117dd565b9050919050565b60006020820190508181036000830152611aa58161181d565b9050919050565b6000602082019050611ac1600083018461192b565b92915050565b6000604082019050611adc600083018561192b565b8181036020830152611aee818461173e565b90509392505050565b6000604051905081810181811067ffffffffffffffff82111715611b1e57611b1d611dba565b5b8060405250919050565b600067ffffffffffffffff821115611b4357611b42611dba565b5b601f19601f8301169050602081019050919050565b6000819050919050565b6000819050602082019050919050565b600060039050919050565b600081519050919050565b600081519050919050565b6000602082019050919050565b6000602082019050919050565b600081905092915050565b600082825260208201905092915050565b600081905092915050565b600082825260208201905092915050565b600082825260208201905092915050565b6000611c0182611c7e565b9150611c0c83611c7e565b9250827fffffffffffffffffffffffffffffffffffffffffffffffffffffffffffffffff03821115611c4157611c40611d2d565b5b828201905092915050565b6000611c5782611c5e565b9050919050565b600073ffffffffffffffffffffffffffffffffffffffff82169050919050565b6000819050919050565b82818337600083830152505050565b60005b83811015611cb5578082015181840152602081019050611c9a565b83811115611cc4576000848401525b50505050565b60006002820490506001821680611ce257607f821691505b60208210811415611cf657611cf5611d8b565b5b50919050565b6000611d0782611c7e565b9150611d1283611c7e565b925082611d2257611d21611d5c565b5b828206905092915050565b7f4e487b7100000000000000000000000000000000000000000000000000000000600052601160045260246000fd5b7f4e487b7100000000000000000000000000000000000000000000000000000000600052601260045260246000fd5b7f4e487b7100000000000000000000000000000000000000000000000000000000600052602260045260246000fd5b7f4e487b7100000000000000000000000000000000000000000000000000000000600052604160045260246000fd5b6000601f19601f830116905091905056fea2646970667358221220ecff9378de7f03250100868ec1d7bfeef1f208848d475bf3ac8a5219d5af9d3c64736f6c63430008000033536d61727420636f6e7472616374207375636365737366756c6c79206465706c6f79656421",
  "linkReferences": {},
  "deployedLinkReferences": {}
}