{
  "_format": "hh-sol-artifact-1",
  "contractName": "WavePortal",
  "sourceName": "contracts/WavePortal.sol",
  "abi": [
    {
      "inputs": [],
      "stateMutability": "nonpayable",
      "type": "constructor"
    },
    {
      "inputs": [],
      "name": "getAddrWaveCount",
      "outputs": [
        {
          "internalType": "uint256",
          "name": "",
          "type": "uint256"
        }
      ],
      "stateMutability": "view",
      "type": "function"
    },
    {
      "inputs": [],
      "name": "getTotalWaves",
      "outputs": [
        {
          "internalType": "uint256",
          "name": "",
          "type": "uint256"
        }
      ],
      "stateMutability": "view",
      "type": "function"
    },
    {
      "inputs": [],
      "name": "wave",
      "outputs": [],
      "stateMutability": "nonpayable",
      "type": "function"
    }
  ],
  "bytecode": "0x608060405234801561001057600080fd5b5061003c6040518060600160405280602581526020016109426025913961004160201b61024d1760201c565b6101c4565b6100dd816040516024016100559190610142565b6040516020818303038152906040527f41304fac000000000000000000000000000000000000000000000000000000007bffffffffffffffffffffffffffffffffffffffffffffffffffffffff19166020820180517bffffffffffffffffffffffffffffffffffffffffffffffffffffffff83818316178352505050506100e060201b60201c565b50565b60008151905060006a636f6e736f6c652e6c6f679050602083016000808483855afa5050505050565b600061011482610164565b61011e818561016f565b935061012e818560208601610180565b610137816101b3565b840191505092915050565b6000602082019050818103600083015261015c8184610109565b905092915050565b600081519050919050565b600082825260208201905092915050565b60005b8381101561019e578082015181840152602081019050610183565b838111156101ad576000848401525b50505050565b6000601f19601f8301169050919050565b61076f806101d36000396000f3fe608060405234801561001057600080fd5b50600436106100415760003560e01c80636a5f684b146100465780636fe15b44146100645780639a2cdc081461006e575b600080fd5b61004e61008c565b60405161005b91906105fd565b60405180910390f35b61006c610152565b005b610076610202565b60405161008391906105fd565b60405180910390f35b600061010d6040518060400160405280601681526020017f2573206861732077617665642025732074696d6573210000000000000000000081525033600160003373ffffffffffffffffffffffffffffffffffffffff1673ffffffffffffffffffffffffffffffffffffffff168152602001908152602001600020546102e6565b600160003373ffffffffffffffffffffffffffffffffffffffff1673ffffffffffffffffffffffffffffffffffffffff16815260200190815260200160002054905090565b60016000808282546101649190610634565b9250508190555060018060003373ffffffffffffffffffffffffffffffffffffffff1673ffffffffffffffffffffffffffffffffffffffff16815260200190815260200160002060008282546101ba9190610634565b925050819055506102006040518060400160405280600d81526020017f257320686173207761766564210000000000000000000000000000000000000081525033610385565b565b60006102456040518060400160405280601781526020017f5765206861766520256420746f74616c20776176657321000000000000000000815250600054610421565b600054905090565b6102e381604051602401610261919061053d565b6040516020818303038152906040527f41304fac000000000000000000000000000000000000000000000000000000007bffffffffffffffffffffffffffffffffffffffffffffffffffffffff19166020820180517bffffffffffffffffffffffffffffffffffffffffffffffffffffffff83818316178352505050506104bd565b50565b6103808383836040516024016102fe9392919061058f565b6040516020818303038152906040527f07c81217000000000000000000000000000000000000000000000000000000007bffffffffffffffffffffffffffffffffffffffffffffffffffffffff19166020820180517bffffffffffffffffffffffffffffffffffffffffffffffffffffffff83818316178352505050506104bd565b505050565b61041d828260405160240161039b92919061055f565b6040516020818303038152906040527f319af333000000000000000000000000000000000000000000000000000000007bffffffffffffffffffffffffffffffffffffffffffffffffffffffff19166020820180517bffffffffffffffffffffffffffffffffffffffffffffffffffffffff83818316178352505050506104bd565b5050565b6104b982826040516024016104379291906105cd565b6040516020818303038152906040527f9710a9d0000000000000000000000000000000000000000000000000000000007bffffffffffffffffffffffffffffffffffffffffffffffffffffffff19166020820180517bffffffffffffffffffffffffffffffffffffffffffffffffffffffff83818316178352505050506104bd565b5050565b60008151905060006a636f6e736f6c652e6c6f679050602083016000808483855afa5050505050565b6104ef8161068a565b82525050565b600061050082610618565b61050a8185610623565b935061051a8185602086016106c6565b61052381610728565b840191505092915050565b610537816106bc565b82525050565b6000602082019050818103600083015261055781846104f5565b905092915050565b6000604082019050818103600083015261057981856104f5565b905061058860208301846104e6565b9392505050565b600060608201905081810360008301526105a981866104f5565b90506105b860208301856104e6565b6105c5604083018461052e565b949350505050565b600060408201905081810360008301526105e781856104f5565b90506105f6602083018461052e565b9392505050565b6000602082019050610612600083018461052e565b92915050565b600081519050919050565b600082825260208201905092915050565b600061063f826106bc565b915061064a836106bc565b9250827fffffffffffffffffffffffffffffffffffffffffffffffffffffffffffffffff0382111561067f5761067e6106f9565b5b828201905092915050565b60006106958261069c565b9050919050565b600073ffffffffffffffffffffffffffffffffffffffff82169050919050565b6000819050919050565b60005b838110156106e45780820151818401526020810190506106c9565b838111156106f3576000848401525b50505050565b7f4e487b7100000000000000000000000000000000000000000000000000000000600052601160045260246000fd5b6000601f19601f830116905091905056fea2646970667358221220c51382ae40527a7ec4b72080f74f6f1e30a3b12acbbebc52bd5a194b3131218464736f6c63430008000033536d61727420636f6e7472616374207375636365737366756c6c79206465706c6f79656421",
  "linkReferences": {},
  "deployedLinkReferences": {}
}