{
  "_format": "hh-sol-artifact-1",
  "contractName": "WavePortal",
  "sourceName": "contracts/WavePortal.sol",
  "abi": [
    {
      "inputs": [],
      "stateMutability": "payable",
      "type": "constructor"
    },
    {
      "anonymous": false,
      "inputs": [
        {
          "indexed": true,
          "internalType": "address",
          "name": "from",
          "type": "address"
        },
        {
          "indexed": false,
          "internalType": "uint256",
          "name": "timestamp",
          "type": "uint256"
        },
        {
          "indexed": false,
          "internalType": "string",
          "name": "message",
          "type": "string"
        }
      ],
      "name": "NewWave",
      "type": "event"
    },
    {
      "inputs": [],
      "name": "getAddrWaveCount",
      "outputs": [
        {
          "internalType": "uint256",
          "name": "",
          "type": "uint256"
        }
      ],
      "stateMutability": "view",
      "type": "function"
    },
    {
      "inputs": [],
      "name": "getAllWaves",
      "outputs": [
        {
          "components": [
            {
              "internalType": "address",
              "name": "waver",
              "type": "address"
            },
            {
              "internalType": "string",
              "name": "message",
              "type": "string"
            },
            {
              "internalType": "uint256",
              "name": "timestamp",
              "type": "uint256"
            }
          ],
          "internalType": "struct WavePortal.Wave[]",
          "name": "",
          "type": "tuple[]"
        }
      ],
      "stateMutability": "view",
      "type": "function"
    },
    {
      "inputs": [],
      "name": "getTotalWaves",
      "outputs": [
        {
          "internalType": "uint256",
          "name": "",
          "type": "uint256"
        }
      ],
      "stateMutability": "view",
      "type": "function"
    },
    {
      "inputs": [
        {
          "internalType": "string",
          "name": "_message",
          "type": "string"
        }
      ],
      "name": "wave",
      "outputs": [],
      "stateMutability": "nonpayable",
      "type": "function"
    }
  ],
  "bytecode": "0x6080604052620000336040518060600160405280602581526020016200124f602591396200003960201b620005f21760201c565b620001cd565b620000d98160405160240162000050919062000146565b6040516020818303038152906040527f41304fac000000000000000000000000000000000000000000000000000000007bffffffffffffffffffffffffffffffffffffffffffffffffffffffff19166020820180517bffffffffffffffffffffffffffffffffffffffffffffffffffffffff8381831617835250505050620000dc60201b60201c565b50565b60008151905060006a636f6e736f6c652e6c6f679050602083016000808483855afa5050505050565b600062000112826200016a565b6200011e818562000175565b93506200013081856020860162000186565b6200013b81620001bc565b840191505092915050565b6000602082019050818103600083015262000162818462000105565b905092915050565b600081519050919050565b600082825260208201905092915050565b60005b83811015620001a657808201518184015260208101905062000189565b83811115620001b6576000848401525b50505050565b6000601f19601f8301169050919050565b61107280620001dd6000396000f3fe608060405234801561001057600080fd5b506004361061004c5760003560e01c8063449d46c0146100515780636a5f684b1461006d5780639a2cdc081461008b578063bd43a908146100a9575b600080fd5b61006b60048036038101906100669190610996565b6100c7565b005b610075610390565b6040516100829190610d7b565b60405180910390f35b610093610456565b6040516100a09190610d7b565b60405180910390f35b6100b16104a1565b6040516100be9190610c59565b60405180910390f35b60016000808282546100d99190610e98565b9250508190555060018060003373ffffffffffffffffffffffffffffffffffffffff1673ffffffffffffffffffffffffffffffffffffffff168152602001908152602001600020600082825461012f9190610e98565b925050819055506101756040518060400160405280600d81526020017f25732068617320776176656421000000000000000000000000000000000000008152503361068b565b600260405180606001604052803373ffffffffffffffffffffffffffffffffffffffff16815260200183815260200142815250908060018154018082558091505060019003906000526020600020906003020160009091909190915060008201518160000160006101000a81548173ffffffffffffffffffffffffffffffffffffffff021916908373ffffffffffffffffffffffffffffffffffffffff160217905550602082015181600101908051906020019061023492919061088b565b506040820151816002015550503373ffffffffffffffffffffffffffffffffffffffff167f5f7e16dc676677766a70e9c5628aa6c54ddb8b6e5188e2ae1e1f17f1ffbea7164283604051610289929190610d96565b60405180910390a26000655af3107a40009050478111156102df576040517f08c379a00000000000000000000000000000000000000000000000000000000081526004016102d690610d5b565b60405180910390fd5b60003373ffffffffffffffffffffffffffffffffffffffff168260405161030590610c44565b60006040518083038185875af1925050503d8060008114610342576040519150601f19603f3d011682016040523d82523d6000602084013e610347565b606091505b505090508061038b576040517f08c379a000000000000000000000000000000000000000000000000000000000815260040161038290610d3b565b60405180910390fd5b505050565b60006104116040518060400160405280601681526020017f2573206861732077617665642025732074696d6573210000000000000000000081525033600160003373ffffffffffffffffffffffffffffffffffffffff1673ffffffffffffffffffffffffffffffffffffffff16815260200190815260200160002054610727565b600160003373ffffffffffffffffffffffffffffffffffffffff1673ffffffffffffffffffffffffffffffffffffffff16815260200190815260200160002054905090565b60006104996040518060400160405280601781526020017f5765206861766520256420746f74616c207761766573210000000000000000008152506000546107c6565b600054905090565b60606002805480602002602001604051908101604052809291908181526020016000905b828210156105e957838290600052602060002090600302016040518060600160405290816000820160009054906101000a900473ffffffffffffffffffffffffffffffffffffffff1673ffffffffffffffffffffffffffffffffffffffff1673ffffffffffffffffffffffffffffffffffffffff16815260200160018201805461054e90610f6c565b80601f016020809104026020016040519081016040528092919081815260200182805461057a90610f6c565b80156105c75780601f1061059c576101008083540402835291602001916105c7565b820191906000526020600020905b8154815290600101906020018083116105aa57829003601f168201915b50505050508152602001600282015481525050815260200190600101906104c5565b50505050905090565b610688816040516024016106069190610c7b565b6040516020818303038152906040527f41304fac000000000000000000000000000000000000000000000000000000007bffffffffffffffffffffffffffffffffffffffffffffffffffffffff19166020820180517bffffffffffffffffffffffffffffffffffffffffffffffffffffffff8381831617835250505050610862565b50565b61072382826040516024016106a1929190610c9d565b6040516020818303038152906040527f319af333000000000000000000000000000000000000000000000000000000007bffffffffffffffffffffffffffffffffffffffffffffffffffffffff19166020820180517bffffffffffffffffffffffffffffffffffffffffffffffffffffffff8381831617835250505050610862565b5050565b6107c183838360405160240161073f93929190610ccd565b6040516020818303038152906040527f07c81217000000000000000000000000000000000000000000000000000000007bffffffffffffffffffffffffffffffffffffffffffffffffffffffff19166020820180517bffffffffffffffffffffffffffffffffffffffffffffffffffffffff8381831617835250505050610862565b505050565b61085e82826040516024016107dc929190610d0b565b6040516020818303038152906040527f9710a9d0000000000000000000000000000000000000000000000000000000007bffffffffffffffffffffffffffffffffffffffffffffffffffffffff19166020820180517bffffffffffffffffffffffffffffffffffffffffffffffffffffffff8381831617835250505050610862565b5050565b60008151905060006a636f6e736f6c652e6c6f679050602083016000808483855afa5050505050565b82805461089790610f6c565b90600052602060002090601f0160209004810192826108b95760008555610900565b82601f106108d257805160ff1916838001178555610900565b82800160010185558215610900579182015b828111156108ff5782518255916020019190600101906108e4565b5b50905061090d9190610911565b5090565b5b8082111561092a576000816000905550600101610912565b5090565b600061094161093c84610df7565b610dc6565b90508281526020810184848401111561095957600080fd5b610964848285610f2a565b509392505050565b600082601f83011261097d57600080fd5b813561098d84826020860161092e565b91505092915050565b6000602082840312156109a857600080fd5b600082013567ffffffffffffffff8111156109c257600080fd5b6109ce8482850161096c565b91505092915050565b60006109e38383610bd6565b905092915050565b6109f481610eee565b82525050565b610a0381610eee565b82525050565b6000610a1482610e37565b610a1e8185610e5a565b935083602082028501610a3085610e27565b8060005b85811015610a6c5784840389528151610a4d85826109d7565b9450610a5883610e4d565b925060208a01995050600181019050610a34565b50829750879550505050505092915050565b6000610a8982610e42565b610a938185610e76565b9350610aa3818560208601610f39565b610aac8161102b565b840191505092915050565b6000610ac282610e42565b610acc8185610e87565b9350610adc818560208601610f39565b610ae58161102b565b840191505092915050565b6000610afd602783610e87565b91507f4661696c656420746f207769746864726177206d6f6e65792066726f6d20636f60008301527f6e74726163742e000000000000000000000000000000000000000000000000006020830152604082019050919050565b6000610b63602e83610e87565b91507f547279696e6720746f207769746864726177206d6f7265207468616e2074686560008301527f20636f6e7472616374206861732e0000000000000000000000000000000000006020830152604082019050919050565b6000610bc9600083610e6b565b9150600082019050919050565b6000606083016000830151610bee60008601826109eb565b5060208301518482036020860152610c068282610a7e565b9150506040830151610c1b6040860182610c26565b508091505092915050565b610c2f81610f20565b82525050565b610c3e81610f20565b82525050565b6000610c4f82610bbc565b9150819050919050565b60006020820190508181036000830152610c738184610a09565b905092915050565b60006020820190508181036000830152610c958184610ab7565b905092915050565b60006040820190508181036000830152610cb78185610ab7565b9050610cc660208301846109fa565b9392505050565b60006060820190508181036000830152610ce78186610ab7565b9050610cf660208301856109fa565b610d036040830184610c35565b949350505050565b60006040820190508181036000830152610d258185610ab7565b9050610d346020830184610c35565b9392505050565b60006020820190508181036000830152610d5481610af0565b9050919050565b60006020820190508181036000830152610d7481610b56565b9050919050565b6000602082019050610d906000830184610c35565b92915050565b6000604082019050610dab6000830185610c35565b8181036020830152610dbd8184610ab7565b90509392505050565b6000604051905081810181811067ffffffffffffffff82111715610ded57610dec610ffc565b5b8060405250919050565b600067ffffffffffffffff821115610e1257610e11610ffc565b5b601f19601f8301169050602081019050919050565b6000819050602082019050919050565b600081519050919050565b600081519050919050565b6000602082019050919050565b600082825260208201905092915050565b600081905092915050565b600082825260208201905092915050565b600082825260208201905092915050565b6000610ea382610f20565b9150610eae83610f20565b9250827fffffffffffffffffffffffffffffffffffffffffffffffffffffffffffffffff03821115610ee357610ee2610f9e565b5b828201905092915050565b6000610ef982610f00565b9050919050565b600073ffffffffffffffffffffffffffffffffffffffff82169050919050565b6000819050919050565b82818337600083830152505050565b60005b83811015610f57578082015181840152602081019050610f3c565b83811115610f66576000848401525b50505050565b60006002820490506001821680610f8457607f821691505b60208210811415610f9857610f97610fcd565b5b50919050565b7f4e487b7100000000000000000000000000000000000000000000000000000000600052601160045260246000fd5b7f4e487b7100000000000000000000000000000000000000000000000000000000600052602260045260246000fd5b7f4e487b7100000000000000000000000000000000000000000000000000000000600052604160045260246000fd5b6000601f19601f830116905091905056fea264697066735822122084707113e34d2a6fe381787fc18f2674b9f38b32b789d12b033b947256f17e1f64736f6c63430008000033536d61727420636f6e7472616374207375636365737366756c6c79206465706c6f79656421",
  "linkReferences": {},
  "deployedLinkReferences": {}
}