{
  "_format": "hh-sol-artifact-1",
  "contractName": "WavePortal",
  "sourceName": "contracts/WavePortal.sol",
  "abi": [
    {
      "inputs": [],
      "stateMutability": "payable",
      "type": "constructor"
    },
    {
      "anonymous": false,
      "inputs": [
        {
          "indexed": true,
          "internalType": "address",
          "name": "from",
          "type": "address"
        },
        {
          "indexed": false,
          "internalType": "uint256",
          "name": "timestamp",
          "type": "uint256"
        },
        {
          "indexed": false,
          "internalType": "string",
          "name": "message",
          "type": "string"
        }
      ],
      "name": "NewWave",
      "type": "event"
    },
    {
      "inputs": [],
      "name": "getAddrWaveCount",
      "outputs": [
        {
          "internalType": "uint256",
          "name": "",
          "type": "uint256"
        }
      ],
      "stateMutability": "view",
      "type": "function"
    },
    {
      "inputs": [],
      "name": "getAllWaves",
      "outputs": [
        {
          "components": [
            {
              "internalType": "address",
              "name": "waver",
              "type": "address"
            },
            {
              "internalType": "string",
              "name": "message",
              "type": "string"
            },
            {
              "internalType": "uint256",
              "name": "timestamp",
              "type": "uint256"
            }
          ],
          "internalType": "struct WavePortal.Wave[]",
          "name": "",
          "type": "tuple[]"
        }
      ],
      "stateMutability": "view",
      "type": "function"
    },
    {
      "inputs": [],
      "name": "getTopWavers",
      "outputs": [
        {
          "components": [
            {
              "internalType": "address",
              "name": "waver",
              "type": "address"
            },
            {
              "internalType": "uint256",
              "name": "count",
              "type": "uint256"
            }
          ],
          "internalType": "struct WavePortal.TopWaver[3]",
          "name": "",
          "type": "tuple[3]"
        }
      ],
      "stateMutability": "view",
      "type": "function"
    },
    {
      "inputs": [],
      "name": "getTotalWaves",
      "outputs": [
        {
          "internalType": "uint256",
          "name": "",
          "type": "uint256"
        }
      ],
      "stateMutability": "view",
      "type": "function"
    },
    {
      "inputs": [
        {
          "internalType": "string",
          "name": "_message",
          "type": "string"
        }
      ],
      "name": "wave",
      "outputs": [],
      "stateMutability": "nonpayable",
      "type": "function"
    }
  ],
  "bytecode": "0x608060405262000033604051806060016040528060258152602001620020dd602591396200003960201b620012571760201c565b620001cd565b620000d98160405160240162000050919062000146565b6040516020818303038152906040527f41304fac000000000000000000000000000000000000000000000000000000007bffffffffffffffffffffffffffffffffffffffffffffffffffffffff19166020820180517bffffffffffffffffffffffffffffffffffffffffffffffffffffffff8381831617835250505050620000dc60201b60201c565b50565b60008151905060006a636f6e736f6c652e6c6f679050602083016000808483855afa5050505050565b600062000112826200016a565b6200011e818562000175565b93506200013081856020860162000186565b6200013b81620001bc565b840191505092915050565b6000602082019050818103600083015262000162818462000105565b905092915050565b600081519050919050565b600082825260208201905092915050565b60005b83811015620001a657808201518184015260208101905062000189565b83811115620001b6576000848401525b50505050565b6000601f19601f8301169050919050565b611f0080620001dd6000396000f3fe608060405234801561001057600080fd5b50600436106100575760003560e01c8063449d46c01461005c5780636a5f684b146100785780639a2cdc0814610096578063bd43a908146100b4578063eb847cec146100d2575b600080fd5b61007660048036038101906100719190611658565b6100f0565b005b610080610e5c565b60405161008d9190611bdc565b60405180910390f35b61009e610f22565b6040516100ab9190611bdc565b60405180910390f35b6100bc610f6d565b6040516100c99190611a7a565b60405180910390f35b6100da6110be565b6040516100e79190611a5f565b60405180910390f35b42601e600360003373ffffffffffffffffffffffffffffffffffffffff1673ffffffffffffffffffffffffffffffffffffffff1681526020019081526020016000205461013d9190611d26565b1061017d576040517f08c379a000000000000000000000000000000000000000000000000000000000815260040161017490611b9c565b60405180910390fd5b600042600360003373ffffffffffffffffffffffffffffffffffffffff1673ffffffffffffffffffffffffffffffffffffffff1681526020019081526020016000208190555060016000808282546101d59190611d26565b925050819055506001600260003373ffffffffffffffffffffffffffffffffffffffff1673ffffffffffffffffffffffffffffffffffffffff168152602001908152602001600020600082825461022c9190611d26565b92505081905550600260003373ffffffffffffffffffffffffffffffffffffffff1673ffffffffffffffffffffffffffffffffffffffff1681526020019081526020016000205490506102b46040518060400160405280600d81526020017f2573206861732077617665642100000000000000000000000000000000000000815250336112f0565b600560405180606001604052803373ffffffffffffffffffffffffffffffffffffffff16815260200184815260200142815250908060018154018082558091505060019003906000526020600020906003020160009091909190915060008201518160000160006101000a81548173ffffffffffffffffffffffffffffffffffffffff021916908373ffffffffffffffffffffffffffffffffffffffff16021790555060208201518160010190805190602001906103739291906114f0565b506040820151816002015550506002600060066000600381106103bf577f4e487b7100000000000000000000000000000000000000000000000000000000600052603260045260246000fd5b0160009054906101000a900473ffffffffffffffffffffffffffffffffffffffff1673ffffffffffffffffffffffffffffffffffffffff1673ffffffffffffffffffffffffffffffffffffffff168152602001908152602001600020548110610770573373ffffffffffffffffffffffffffffffffffffffff166006600060038110610474577f4e487b7100000000000000000000000000000000000000000000000000000000600052603260045260246000fd5b0160009054906101000a900473ffffffffffffffffffffffffffffffffffffffff1673ffffffffffffffffffffffffffffffffffffffff161461076b573373ffffffffffffffffffffffffffffffffffffffff166006600160038110610503577f4e487b7100000000000000000000000000000000000000000000000000000000600052603260045260246000fd5b0160009054906101000a900473ffffffffffffffffffffffffffffffffffffffff1673ffffffffffffffffffffffffffffffffffffffff161461061857600660016003811061057b577f4e487b7100000000000000000000000000000000000000000000000000000000600052603260045260246000fd5b0160009054906101000a900473ffffffffffffffffffffffffffffffffffffffff1660066002600381106105d8577f4e487b7100000000000000000000000000000000000000000000000000000000600052603260045260246000fd5b0160006101000a81548173ffffffffffffffffffffffffffffffffffffffff021916908373ffffffffffffffffffffffffffffffffffffffff1602179055505b6006600060038110610653577f4e487b7100000000000000000000000000000000000000000000000000000000600052603260045260246000fd5b0160009054906101000a900473ffffffffffffffffffffffffffffffffffffffff1660066001600381106106b0577f4e487b7100000000000000000000000000000000000000000000000000000000600052603260045260246000fd5b0160006101000a81548173ffffffffffffffffffffffffffffffffffffffff021916908373ffffffffffffffffffffffffffffffffffffffff16021790555033600660006003811061072b577f4e487b7100000000000000000000000000000000000000000000000000000000600052603260045260246000fd5b0160006101000a81548173ffffffffffffffffffffffffffffffffffffffff021916908373ffffffffffffffffffffffffffffffffffffffff1602179055505b610ba9565b6002600060066001600381106107af577f4e487b7100000000000000000000000000000000000000000000000000000000600052603260045260246000fd5b0160009054906101000a900473ffffffffffffffffffffffffffffffffffffffff1673ffffffffffffffffffffffffffffffffffffffff1673ffffffffffffffffffffffffffffffffffffffff1681526020019081526020016000205481106109f9573373ffffffffffffffffffffffffffffffffffffffff166006600160038110610864577f4e487b7100000000000000000000000000000000000000000000000000000000600052603260045260246000fd5b0160009054906101000a900473ffffffffffffffffffffffffffffffffffffffff1673ffffffffffffffffffffffffffffffffffffffff16146109f45760066001600381106108dc577f4e487b7100000000000000000000000000000000000000000000000000000000600052603260045260246000fd5b0160009054906101000a900473ffffffffffffffffffffffffffffffffffffffff166006600260038110610939577f4e487b7100000000000000000000000000000000000000000000000000000000600052603260045260246000fd5b0160006101000a81548173ffffffffffffffffffffffffffffffffffffffff021916908373ffffffffffffffffffffffffffffffffffffffff1602179055503360066001600381106109b4577f4e487b7100000000000000000000000000000000000000000000000000000000600052603260045260246000fd5b0160006101000a81548173ffffffffffffffffffffffffffffffffffffffff021916908373ffffffffffffffffffffffffffffffffffffffff1602179055505b610ba8565b600260006006600260038110610a38577f4e487b7100000000000000000000000000000000000000000000000000000000600052603260045260246000fd5b0160009054906101000a900473ffffffffffffffffffffffffffffffffffffffff1673ffffffffffffffffffffffffffffffffffffffff1673ffffffffffffffffffffffffffffffffffffffff168152602001908152602001600020548110610ba7573373ffffffffffffffffffffffffffffffffffffffff166006600260038110610aed577f4e487b7100000000000000000000000000000000000000000000000000000000600052603260045260246000fd5b0160009054906101000a900473ffffffffffffffffffffffffffffffffffffffff1673ffffffffffffffffffffffffffffffffffffffff1614610ba657336006600260038110610b66577f4e487b7100000000000000000000000000000000000000000000000000000000600052603260045260246000fd5b0160006101000a81548173ffffffffffffffffffffffffffffffffffffffff021916908373ffffffffffffffffffffffffffffffffffffffff1602179055505b5b5b5b3373ffffffffffffffffffffffffffffffffffffffff167f5f7e16dc676677766a70e9c5628aa6c54ddb8b6e5188e2ae1e1f17f1ffbea7164284604051610bf1929190611bf7565b60405180910390a23373ffffffffffffffffffffffffffffffffffffffff166006600060038110610c4b577f4e487b7100000000000000000000000000000000000000000000000000000000600052603260045260246000fd5b0160009054906101000a900473ffffffffffffffffffffffffffffffffffffffff1673ffffffffffffffffffffffffffffffffffffffff161415610e585742610e10600460003373ffffffffffffffffffffffffffffffffffffffff1673ffffffffffffffffffffffffffffffffffffffff16815260200190815260200160002054610cd79190611d26565b10610d17576040517f08c379a0000000000000000000000000000000000000000000000000000000008152600401610d0e90611b5c565b60405180910390fd5b6000655af3107a4000905047811115610d65576040517f08c379a0000000000000000000000000000000000000000000000000000000008152600401610d5c90611bbc565b60405180910390fd5b60003373ffffffffffffffffffffffffffffffffffffffff1682604051610d8b90611a4a565b60006040518083038185875af1925050503d8060008114610dc8576040519150601f19603f3d011682016040523d82523d6000602084013e610dcd565b606091505b5050905080610e11576040517f08c379a0000000000000000000000000000000000000000000000000000000008152600401610e0890611b7c565b60405180910390fd5b42600460003373ffffffffffffffffffffffffffffffffffffffff1673ffffffffffffffffffffffffffffffffffffffff1681526020019081526020016000208190555050505b5050565b6000610edd6040518060400160405280601681526020017f2573206861732077617665642025732074696d6573210000000000000000000081525033600260003373ffffffffffffffffffffffffffffffffffffffff1673ffffffffffffffffffffffffffffffffffffffff1681526020019081526020016000205461138c565b600260003373ffffffffffffffffffffffffffffffffffffffff1673ffffffffffffffffffffffffffffffffffffffff16815260200190815260200160002054905090565b6000610f656040518060400160405280601781526020017f5765206861766520256420746f74616c2077617665732100000000000000000081525060005461142b565b600054905090565b60606005805480602002602001604051908101604052809291908181526020016000905b828210156110b557838290600052602060002090600302016040518060600160405290816000820160009054906101000a900473ffffffffffffffffffffffffffffffffffffffff1673ffffffffffffffffffffffffffffffffffffffff1673ffffffffffffffffffffffffffffffffffffffff16815260200160018201805461101a90611dfa565b80601f016020809104026020016040519081016040528092919081815260200182805461104690611dfa565b80156110935780601f1061106857610100808354040283529160200191611093565b820191906000526020600020905b81548152906001019060200180831161107657829003601f168201915b5050505050815260200160028201548152505081526020019060010190610f91565b50505050905090565b6110c6611576565b6110ce611576565b60005b600381101561124f5760405180604001604052806006836003811061111f577f4e487b7100000000000000000000000000000000000000000000000000000000600052603260045260246000fd5b0160009054906101000a900473ffffffffffffffffffffffffffffffffffffffff1673ffffffffffffffffffffffffffffffffffffffff168152602001600260006006856003811061119a577f4e487b7100000000000000000000000000000000000000000000000000000000600052603260045260246000fd5b0160009054906101000a900473ffffffffffffffffffffffffffffffffffffffff1673ffffffffffffffffffffffffffffffffffffffff1673ffffffffffffffffffffffffffffffffffffffff16815260200190815260200160002054815250828260038110611233577f4e487b7100000000000000000000000000000000000000000000000000000000600052603260045260246000fd5b60200201819052506001816112489190611d26565b90506110d1565b508091505090565b6112ed8160405160240161126b9190611a9c565b6040516020818303038152906040527f41304fac000000000000000000000000000000000000000000000000000000007bffffffffffffffffffffffffffffffffffffffffffffffffffffffff19166020820180517bffffffffffffffffffffffffffffffffffffffffffffffffffffffff83818316178352505050506114c7565b50565b6113888282604051602401611306929190611abe565b6040516020818303038152906040527f319af333000000000000000000000000000000000000000000000000000000007bffffffffffffffffffffffffffffffffffffffffffffffffffffffff19166020820180517bffffffffffffffffffffffffffffffffffffffffffffffffffffffff83818316178352505050506114c7565b5050565b6114268383836040516024016113a493929190611aee565b6040516020818303038152906040527f07c81217000000000000000000000000000000000000000000000000000000007bffffffffffffffffffffffffffffffffffffffffffffffffffffffff19166020820180517bffffffffffffffffffffffffffffffffffffffffffffffffffffffff83818316178352505050506114c7565b505050565b6114c38282604051602401611441929190611b2c565b6040516020818303038152906040527f9710a9d0000000000000000000000000000000000000000000000000000000007bffffffffffffffffffffffffffffffffffffffffffffffffffffffff19166020820180517bffffffffffffffffffffffffffffffffffffffffffffffffffffffff83818316178352505050506114c7565b5050565b60008151905060006a636f6e736f6c652e6c6f679050602083016000808483855afa5050505050565b8280546114fc90611dfa565b90600052602060002090601f01602090048101928261151e5760008555611565565b82601f1061153757805160ff1916838001178555611565565b82800160010185558215611565579182015b82811115611564578251825591602001919060010190611549565b5b50905061157291906115a3565b5090565b60405180606001604052806003905b61158d6115c0565b8152602001906001900390816115855790505090565b5b808211156115bc5760008160009055506001016115a4565b5090565b6040518060400160405280600073ffffffffffffffffffffffffffffffffffffffff168152602001600081525090565b60006116036115fe84611c58565b611c27565b90508281526020810184848401111561161b57600080fd5b611626848285611db8565b509392505050565b600082601f83011261163f57600080fd5b813561164f8482602086016115f0565b91505092915050565b60006020828403121561166a57600080fd5b600082013567ffffffffffffffff81111561168457600080fd5b6116908482850161162e565b91505092915050565b60006116a583836119ad565b60408301905092915050565b60006116bd83836119dc565b905092915050565b6116ce81611d7c565b82525050565b6116dd81611d7c565b82525050565b6116ec81611ca2565b6116f68184611cdd565b925061170182611c88565b8060005b838110156117325781516117198782611699565b965061172483611cc3565b925050600181019050611705565b505050505050565b600061174582611cad565b61174f8185611ce8565b93508360208202850161176185611c92565b8060005b8581101561179d578484038952815161177e85826116b1565b945061178983611cd0565b925060208a01995050600181019050611765565b50829750879550505050505092915050565b60006117ba82611cb8565b6117c48185611d04565b93506117d4818560208601611dc7565b6117dd81611eb9565b840191505092915050565b60006117f382611cb8565b6117fd8185611d15565b935061180d818560208601611dc7565b61181681611eb9565b840191505092915050565b600061182e602d83611d15565b91507f53616d6520757365722063616e206f6e6c792077696e206f6e6365206576657260008301527f79203630206d696e757465732e000000000000000000000000000000000000006020830152604082019050919050565b6000611894602783611d15565b91507f4661696c656420746f207769746864726177206d6f6e65792066726f6d20636f60008301527f6e74726163742e000000000000000000000000000000000000000000000000006020830152604082019050919050565b60006118fa600883611d15565b91507f57616974203330730000000000000000000000000000000000000000000000006000830152602082019050919050565b600061193a602e83611d15565b91507f547279696e6720746f207769746864726177206d6f7265207468616e2074686560008301527f20636f6e7472616374206861732e0000000000000000000000000000000000006020830152604082019050919050565b60006119a0600083611cf9565b9150600082019050919050565b6040820160008201516119c360008501826116c5565b5060208201516119d66020850182611a2c565b50505050565b60006060830160008301516119f460008601826116c5565b5060208301518482036020860152611a0c82826117af565b9150506040830151611a216040860182611a2c565b508091505092915050565b611a3581611dae565b82525050565b611a4481611dae565b82525050565b6000611a5582611993565b9150819050919050565b600060c082019050611a7460008301846116e3565b92915050565b60006020820190508181036000830152611a94818461173a565b905092915050565b60006020820190508181036000830152611ab681846117e8565b905092915050565b60006040820190508181036000830152611ad881856117e8565b9050611ae760208301846116d4565b9392505050565b60006060820190508181036000830152611b0881866117e8565b9050611b1760208301856116d4565b611b246040830184611a3b565b949350505050565b60006040820190508181036000830152611b4681856117e8565b9050611b556020830184611a3b565b9392505050565b60006020820190508181036000830152611b7581611821565b9050919050565b60006020820190508181036000830152611b9581611887565b9050919050565b60006020820190508181036000830152611bb5816118ed565b9050919050565b60006020820190508181036000830152611bd58161192d565b9050919050565b6000602082019050611bf16000830184611a3b565b92915050565b6000604082019050611c0c6000830185611a3b565b8181036020830152611c1e81846117e8565b90509392505050565b6000604051905081810181811067ffffffffffffffff82111715611c4e57611c4d611e8a565b5b8060405250919050565b600067ffffffffffffffff821115611c7357611c72611e8a565b5b601f19601f8301169050602081019050919050565b6000819050919050565b6000819050602082019050919050565b600060039050919050565b600081519050919050565b600081519050919050565b6000602082019050919050565b6000602082019050919050565b600081905092915050565b600082825260208201905092915050565b600081905092915050565b600082825260208201905092915050565b600082825260208201905092915050565b6000611d3182611dae565b9150611d3c83611dae565b9250827fffffffffffffffffffffffffffffffffffffffffffffffffffffffffffffffff03821115611d7157611d70611e2c565b5b828201905092915050565b6000611d8782611d8e565b9050919050565b600073ffffffffffffffffffffffffffffffffffffffff82169050919050565b6000819050919050565b82818337600083830152505050565b60005b83811015611de5578082015181840152602081019050611dca565b83811115611df4576000848401525b50505050565b60006002820490506001821680611e1257607f821691505b60208210811415611e2657611e25611e5b565b5b50919050565b7f4e487b7100000000000000000000000000000000000000000000000000000000600052601160045260246000fd5b7f4e487b7100000000000000000000000000000000000000000000000000000000600052602260045260246000fd5b7f4e487b7100000000000000000000000000000000000000000000000000000000600052604160045260246000fd5b6000601f19601f830116905091905056fea264697066735822122050c08b9f2fd0e05a29849f7ced02da257bce3139128870686ca585f1238492e664736f6c63430008000033536d61727420636f6e7472616374207375636365737366756c6c79206465706c6f79656421",
  "linkReferences": {},
  "deployedLinkReferences": {}
}